:100000000C942A000C943C000C943C000C943C0092
:100010000C943C000C943C000C94DD000C943C00CF
:100020000C943C000C943C000C943C000C943C0060
:100030000C943C000C942D010C943C000C943C005E
:100040000C943C000C943C000C943C000C943C0040
:100050000C943C0011241FBECFE5D4E0DEBFCDBF21
:1000600010E0A0E6B0E001C01D92A137B107E1F7B2
:100070000E9466000C9482010C94000080E687B90F
:1000800084E886B90895806687B985E38A95F1F793
:10009000369A349BFECF349A85B108951BBA1ABAAA
:1000A00018BA8FEF87BB15BA14BA12BA11BA13BEB9
:1000B00012BE1CBE12BC15BC14BC13BC15BE14BEB3
:1000C00080E189BF80E888B910BE08950F931F931F
:1000D0000E944E000E946D010E9421010E943E007C
:1000E00084E68093600004E60E94130180E00E9491
:1000F0004300182F80916100882361F0133D28F0A0
:10010000C09A163328F4C19AEFCFC0981633D8F3AB
:10011000C198EACF00936000812F0E94450182E7D9
:100120000E94690185E60E9469018AE70E946901CF
:1001300080E20E94690181E40E94690184E40E94D6
:10014000690183E40E9469018AE30E946901809148
:1001500070000E94690180916C000E94690188E62C
:100160000E9469018CE70E94690180917000609192
:100170006C000E945D0163E30E9476010E944501CC
:1001800086E70E94690181E60E9469018CE60E946F
:10019000690180E20E94690185E50E9469018AE3A4
:1001A0000E94690180916C000E94690186E50E94AD
:1001B00069018AE00E946901A1CF1F920F920FB6D8
:1001C0000F9211242F933F934F938F939F9381E02E
:1001D00090E090936B0080936A004BB52AB530E0B5
:1001E000205E314B942F80E0280F391F3093690037
:1001F000209368003BBD2ABD9F918F914F913F9105
:100200002F910F900FBE0F901F901895E0E6F0E031
:100210008081882311F081508083319680E0E83618
:10022000F807B1F7089580916A0090916B00892BCF
:1002300009F4089510926B0010926A000E94060162
:1002400008951FBC82E08EBD1DBC1CBC17BC16BC33
:100250001BBC1ABC19BC18BC08951F920F920FB694
:100260000F9211248F939F938BB180916F008CB963
:1002700081E090E090936E0080936D009F918F914C
:100280000F900FBE0F901F901895982F92959F700A
:100290008F709A3048F0995C909370008A3048F4DF
:1002A000805D80936C000895905D909370008A301B
:1002B000B8F3895C80936C0008958A3308F0875006
:1002C0008F706A3308F067506F708295807F862B3D
:1002D00008958CB95D9BFECF08951BB888E48AB958
:1002E00086E880BD10BC87E689B90895991B79E03E
:1002F00004C0991F961708F0961B881F7A95C9F7B6
:0803000080950895F894FFCFE9
:00000001FF
